{
  "contractName": "Exercice4",
  "abi": [
    {
      "anonymous": false,
      "inputs": [
        {
          "indexed": false,
          "internalType": "int256",
          "name": "nombre",
          "type": "int256"
        },
        {
          "indexed": false,
          "internalType": "bool",
          "name": "resultat",
          "type": "bool"
        }
      ],
      "name": "VerificationPositif",
      "type": "event"
    },
    {
      "inputs": [
        {
          "internalType": "int256",
          "name": "nombre",
          "type": "int256"
        }
      ],
      "name": "estPositif",
      "outputs": [
        {
          "internalType": "bool",
          "name": "",
          "type": "bool"
        }
      ],
      "stateMutability": "nonpayable",
      "type": "function"
    },
    {
      "inputs": [
        {
          "internalType": "int256",
          "name": "nombre",
          "type": "int256"
        }
      ],
      "name": "estPositifView",
      "outputs": [
        {
          "internalType": "bool",
          "name": "",
          "type": "bool"
        }
      ],
      "stateMutability": "pure",
      "type": "function",
      "constant": true
    },
    {
      "inputs": [
        {
          "internalType": "int256",
          "name": "nombre",
          "type": "int256"
        }
      ],
      "name": "estPositifOuNul",
      "outputs": [
        {
          "internalType": "bool",
          "name": "",
          "type": "bool"
        }
      ],
      "stateMutability": "pure",
      "type": "function",
      "constant": true
    }
  ],
  "bytecode": "0x608060405234801561001057600080fd5b50610119806100206000396000f3fe6080604052348015600f57600080fd5b5060043610603c5760003560e01c80630d049939146041578063162dc888146067578063fa046abd146078575b600080fd5b6053604c36600460cb565b6000131590565b604051901515815260200160405180910390f35b6053607236600460cb565b60001290565b6053608336600460cb565b60408051828152600080841360208301819052909290917f2715042edf123398f583ced659e5f409526978dbee8e455ccac1c3af96148942910160405180910390a192915050565b60006020828403121560dc57600080fd5b503591905056fea2646970667358221220d2d3c05cb5d50441a44510ce5b63466b31fb921de01b437ad14024d020efa64264736f6c63430008130033",
  "immutableReferences": {},
  "source": "// SPDX-License-Identifier: MIT\r\npragma solidity ^0.8.19;\r\n\r\ncontract Exercice4 {\r\n    // Événement pour logger les vérifications\r\n    event VerificationPositif(int256 nombre, bool resultat);\r\n    \r\n    // Fonction pour vérifier si un nombre est positif\r\n    function estPositif(int256 nombre) public returns (bool) {\r\n        bool resultat = nombre > 0;\r\n        emit VerificationPositif(nombre, resultat);\r\n        return resultat;\r\n    }\r\n    \r\n    // Version view de la fonction (sans événement)\r\n    function estPositifView(int256 nombre) public pure returns (bool) {\r\n        return nombre > 0;\r\n    }\r\n    \r\n    // Fonction utilitaire pour tester avec zéro\r\n    function estPositifOuNul(int256 nombre) public pure returns (bool) {\r\n        return nombre >= 0;\r\n    }\r\n}",
  "sourcePath": "C:\\Users\\MALAK\\dapp-tp3\\contracts\\Exercice4.sol",
  "compiler": {
    "name": "solc",
    "version": "0.8.19+commit.7dd6d404.Emscripten.clang"
  },
  "schemaVersion": "3.4.16",
  "updatedAt": "2025-07-30T02:19:28.724Z",
  "networkType": "ethereum",
  "devdoc": {
    "kind": "dev",
    "methods": {},
    "version": 1
  },
  "userdoc": {
    "kind": "user",
    "methods": {},
    "version": 1
  }
}