{
  "contractName": "Exercice2",
  "abi": [
    {
      "inputs": [
        {
          "internalType": "uint256",
          "name": "montantEther",
          "type": "uint256"
        }
      ],
      "name": "etherEnWei",
      "outputs": [
        {
          "internalType": "uint256",
          "name": "",
          "type": "uint256"
        }
      ],
      "stateMutability": "pure",
      "type": "function",
      "constant": true
    },
    {
      "inputs": [
        {
          "internalType": "uint256",
          "name": "montantWei",
          "type": "uint256"
        }
      ],
      "name": "weiEnEther",
      "outputs": [
        {
          "internalType": "uint256",
          "name": "",
          "type": "uint256"
        }
      ],
      "stateMutability": "pure",
      "type": "function",
      "constant": true
    },
    {
      "inputs": [],
      "name": "getOneEtherInWei",
      "outputs": [
        {
          "internalType": "uint256",
          "name": "",
          "type": "uint256"
        }
      ],
      "stateMutability": "pure",
      "type": "function",
      "constant": true
    }
  ],
  "bytecode": "0x608060405234801561001057600080fd5b50610150806100206000396000f3fe608060405234801561001057600080fd5b50600436106100415760003560e01c806318b5d6e514610046578063b59a5f331461006b578063b5fcda3414610079575b600080fd5b6100596100543660046100ba565b61008c565b60405190815260200160405180910390f35b670de0b6b3a7640000610059565b6100596100873660046100ba565b6100a6565b60006100a0670de0b6b3a7640000836100d3565b92915050565b60006100a082670de0b6b3a76400006100f5565b6000602082840312156100cc57600080fd5b5035919050565b6000826100f057634e487b7160e01b600052601260045260246000fd5b500490565b80820281158282048414176100a057634e487b7160e01b600052601160045260246000fdfea26469706673582212205ba1647ebe01e6f2cbf55c6be1a59cc2d7454a626bc4f9812823459752679d2a64736f6c63430008130033",
  "immutableReferences": {},
  "source": "// SPDX-License-Identifier: MIT\r\npragma solidity ^0.8.19;\r\n\r\ncontract Exercice2 {\r\n    // Pas de variables d'état selon le TP\r\n    \r\n    // Fonction pour convertir Ether en Wei\r\n    function etherEnWei(uint256 montantEther) public pure returns (uint256) {\r\n        return montantEther * 1 ether;\r\n    }\r\n    \r\n    // Fonction bonus pour convertir Wei en Ether\r\n    function weiEnEther(uint256 montantWei) public pure returns (uint256) {\r\n        return montantWei / 1 ether;\r\n    }\r\n    \r\n    // Fonction utilitaire pour obtenir la valeur de 1 ether en wei\r\n    function getOneEtherInWei() public pure returns (uint256) {\r\n        return 1 ether;\r\n    }\r\n}",
  "sourcePath": "C:\\Users\\MALAK\\dapp-tp3\\contracts\\Exercice2.sol",
  "compiler": {
    "name": "solc",
    "version": "0.8.19+commit.7dd6d404.Emscripten.clang"
  },
  "schemaVersion": "3.4.16",
  "updatedAt": "2025-07-30T02:19:28.710Z",
  "networkType": "ethereum",
  "devdoc": {
    "kind": "dev",
    "methods": {},
    "version": 1
  },
  "userdoc": {
    "kind": "user",
    "methods": {},
    "version": 1
  }
}