{
  "contractName": "Exercice5",
  "abi": [
    {
      "anonymous": false,
      "inputs": [
        {
          "indexed": false,
          "internalType": "uint256",
          "name": "nombre",
          "type": "uint256"
        },
        {
          "indexed": false,
          "internalType": "bool",
          "name": "estPair",
          "type": "bool"
        }
      ],
      "name": "VerificationParite",
      "type": "event"
    },
    {
      "inputs": [
        {
          "internalType": "uint256",
          "name": "nombre",
          "type": "uint256"
        }
      ],
      "name": "estPair",
      "outputs": [
        {
          "internalType": "bool",
          "name": "",
          "type": "bool"
        }
      ],
      "stateMutability": "nonpayable",
      "type": "function"
    },
    {
      "inputs": [
        {
          "internalType": "uint256",
          "name": "nombre",
          "type": "uint256"
        }
      ],
      "name": "estImpair",
      "outputs": [
        {
          "internalType": "bool",
          "name": "",
          "type": "bool"
        }
      ],
      "stateMutability": "nonpayable",
      "type": "function"
    },
    {
      "inputs": [
        {
          "internalType": "uint256",
          "name": "nombre",
          "type": "uint256"
        }
      ],
      "name": "estPairView",
      "outputs": [
        {
          "internalType": "bool",
          "name": "",
          "type": "bool"
        }
      ],
      "stateMutability": "pure",
      "type": "function",
      "constant": true
    },
    {
      "inputs": [
        {
          "internalType": "uint256",
          "name": "nombre",
          "type": "uint256"
        }
      ],
      "name": "estImpairView",
      "outputs": [
        {
          "internalType": "bool",
          "name": "",
          "type": "bool"
        }
      ],
      "stateMutability": "pure",
      "type": "function",
      "constant": true
    },
    {
      "inputs": [
        {
          "internalType": "uint256",
          "name": "nombre",
          "type": "uint256"
        }
      ],
      "name": "getTypeParite",
      "outputs": [
        {
          "internalType": "string",
          "name": "",
          "type": "string"
        }
      ],
      "stateMutability": "pure",
      "type": "function",
      "constant": true
    }
  ],
  "bytecode": "0x608060405234801561001057600080fd5b506102b6806100206000396000f3fe608060405234801561001057600080fd5b50600436106100575760003560e01c80631cee907f1461005c5780632a74e29c146100845780634b457b72146100a457806375afe272146100b7578063a0310829146100ca575b600080fd5b61006f61006a3660046101f7565b6100dd565b60405190151581526020015b60405180910390f35b6100976100923660046101f7565b61012f565b60405161007b9190610210565b61006f6100b23660046101f7565b610185565b61006f6100c53660046101f7565b61019a565b61006f6100d83660046101f7565b6101e3565b6000806100eb60028461025e565b6040805185815291156020830181905292507f9f96c3c10e4edb6b5af5da724a37ae608f78ead60a40a95164772be69124536191015b60405180910390a192915050565b606061013c60028361025e565b6000036101635750506040805180820190915260048152633830b4b960e11b602082015290565b505060408051808201909152600681526534b6b830b4b960d11b602082015290565b600061019260028361025e565b151592915050565b6000806101a860028461025e565b604080518581529115602083018190521592507f9f96c3c10e4edb6b5af5da724a37ae608f78ead60a40a95164772be6912453619101610121565b60006101f060028361025e565b1592915050565b60006020828403121561020957600080fd5b5035919050565b600060208083528351808285015260005b8181101561023d57858101830151858201604001528201610221565b506000604082860101526040601f19601f8301168501019250505092915050565b60008261027b57634e487b7160e01b600052601260045260246000fd5b50069056fea264697066735822122026e58e5dd27aa3782ccc3a9c5f3c608db08d050a4fd0f6634003dc8d15c7335c64736f6c63430008130033",
  "immutableReferences": {},
  "source": "// SPDX-License-Identifier: MIT\r\npragma solidity ^0.8.19;\r\n\r\ncontract Exercice5 {\r\n    // vnement pour logger les vrifications de parit\r\n    event VerificationParite(uint256 nombre, bool estPair);\r\n    \r\n    // Fonction pour vrifier si un nombre est pair\r\n    function estPair(uint256 nombre) public returns (bool) {\r\n        bool resultat = nombre % 2 == 0;\r\n        emit VerificationParite(nombre, resultat);\r\n        return resultat;\r\n    }\r\n    \r\n    // Fonction pour vrifier si un nombre est impair\r\n    function estImpair(uint256 nombre) public returns (bool) {\r\n        bool resultat = nombre % 2 != 0;\r\n        emit VerificationParite(nombre, !resultat);\r\n        return resultat;\r\n    }\r\n    \r\n    // Version view de la fonction de parit (sans vnement)\r\n    function estPairView(uint256 nombre) public pure returns (bool) {\r\n        return nombre % 2 == 0;\r\n    }\r\n    \r\n    // Version view pour impair\r\n    function estImpairView(uint256 nombre) public pure returns (bool) {\r\n        return nombre % 2 != 0;\r\n    }\r\n    \r\n    // Fonction pour obtenir le type de parit sous forme de string\r\n    function getTypeParite(uint256 nombre) public pure returns (string memory) {\r\n        if (nombre % 2 == 0) {\r\n            return \"pair\";\r\n        } else {\r\n            return \"impair\";\r\n        }\r\n    }\r\n}",
  "sourcePath": "C:\\Users\\MALAK\\dapp-tp3\\contracts\\Exercice5.sol",
  "compiler": {
    "name": "solc",
    "version": "0.8.19+commit.7dd6d404.Emscripten.clang"
  },
  "schemaVersion": "3.4.16",
  "updatedAt": "2025-07-30T02:19:28.727Z",
  "networkType": "ethereum",
  "devdoc": {
    "kind": "dev",
    "methods": {},
    "version": 1
  },
  "userdoc": {
    "kind": "user",
    "methods": {},
    "version": 1
  }
}