{
  "contractName": "Exercice1",
  "abi": [
    {
      "inputs": [],
      "stateMutability": "nonpayable",
      "type": "constructor"
    },
    {
      "inputs": [],
      "name": "nombre1",
      "outputs": [
        {
          "internalType": "uint256",
          "name": "",
          "type": "uint256"
        }
      ],
      "stateMutability": "view",
      "type": "function",
      "constant": true
    },
    {
      "inputs": [],
      "name": "nombre2",
      "outputs": [
        {
          "internalType": "uint256",
          "name": "",
          "type": "uint256"
        }
      ],
      "stateMutability": "view",
      "type": "function",
      "constant": true
    },
    {
      "inputs": [],
      "name": "addition1",
      "outputs": [
        {
          "internalType": "uint256",
          "name": "",
          "type": "uint256"
        }
      ],
      "stateMutability": "view",
      "type": "function",
      "constant": true
    },
    {
      "inputs": [
        {
          "internalType": "uint256",
          "name": "a",
          "type": "uint256"
        },
        {
          "internalType": "uint256",
          "name": "b",
          "type": "uint256"
        }
      ],
      "name": "addition2",
      "outputs": [
        {
          "internalType": "uint256",
          "name": "",
          "type": "uint256"
        }
      ],
      "stateMutability": "pure",
      "type": "function",
      "constant": true
    }
  ],
  "bytecode": "0x608060405234801561001057600080fd5b50600a60005560146001556101218061002a6000396000f3fe6080604052348015600f57600080fd5b506004361060465760003560e01c80634d3e46e414604b57806356620c8a1460635780637a5ba40414606b578063f1d16438146073575b600080fd5b60516082565b60405190815260200160405180910390f35b605160015481565b605160005481565b6051607e36600460aa565b6097565b60006001546000546092919060cb565b905090565b600060a1828460cb565b90505b92915050565b6000806040838503121560bc57600080fd5b50508035926020909101359150565b8082018082111560a457634e487b7160e01b600052601160045260246000fdfea2646970667358221220572c02fa9369e30995175bee5275972f129bc164d85358d1a25894c808897e8564736f6c63430008130033",
  "immutableReferences": {},
  "source": "// SPDX-License-Identifier: MIT\r\npragma solidity ^0.8.19;\r\n\r\ncontract Exercice1 {\r\n    // Variables d'état - deux nombres\r\n    uint256 public nombre1;\r\n    uint256 public nombre2;\r\n\r\n    // Constructeur : valeurs initiales\r\n    constructor() {\r\n        nombre1 = 10;\r\n        nombre2 = 20;\r\n    }\r\n\r\n    // Fonction view : somme des variables d'état\r\n    function addition1() public view returns (uint256) {\r\n        return nombre1 + nombre2;\r\n    }\r\n\r\n    // Fonction pure : somme de deux paramètres\r\n    function addition2(uint256 a, uint256 b) public pure returns (uint256) {\r\n        return a + b;\r\n    }\r\n}\r\n",
  "sourcePath": "C:\\Users\\MALAK\\dapp-tp3\\contracts\\Exercice1.sol",
  "compiler": {
    "name": "solc",
    "version": "0.8.19+commit.7dd6d404.Emscripten.clang"
  },
  "schemaVersion": "3.4.16",
  "updatedAt": "2025-07-30T02:19:28.707Z",
  "networkType": "ethereum",
  "devdoc": {
    "kind": "dev",
    "methods": {},
    "version": 1
  },
  "userdoc": {
    "kind": "user",
    "methods": {},
    "version": 1
  }
}