{
  "contractName": "Exercice6",
  "abi": [
    {
      "inputs": [],
      "stateMutability": "nonpayable",
      "type": "constructor"
    },
    {
      "anonymous": false,
      "inputs": [
        {
          "indexed": false,
          "internalType": "uint256",
          "name": "nombre",
          "type": "uint256"
        }
      ],
      "name": "NombreAjoute",
      "type": "event"
    },
    {
      "anonymous": false,
      "inputs": [
        {
          "indexed": false,
          "internalType": "uint256",
          "name": "somme",
          "type": "uint256"
        }
      ],
      "name": "SommeCalculee",
      "type": "event"
    },
    {
      "inputs": [
        {
          "internalType": "uint256",
          "name": "",
          "type": "uint256"
        }
      ],
      "name": "nombres",
      "outputs": [
        {
          "internalType": "uint256",
          "name": "",
          "type": "uint256"
        }
      ],
      "stateMutability": "view",
      "type": "function",
      "constant": true
    },
    {
      "inputs": [
        {
          "internalType": "uint256",
          "name": "nombre",
          "type": "uint256"
        }
      ],
      "name": "ajouterNombre",
      "outputs": [],
      "stateMutability": "nonpayable",
      "type": "function"
    },
    {
      "inputs": [
        {
          "internalType": "uint256",
          "name": "index",
          "type": "uint256"
        }
      ],
      "name": "getElement",
      "outputs": [
        {
          "internalType": "uint256",
          "name": "",
          "type": "uint256"
        }
      ],
      "stateMutability": "view",
      "type": "function",
      "constant": true
    },
    {
      "inputs": [],
      "name": "afficheTableau",
      "outputs": [
        {
          "internalType": "uint256[]",
          "name": "",
          "type": "uint256[]"
        }
      ],
      "stateMutability": "view",
      "type": "function",
      "constant": true
    },
    {
      "inputs": [],
      "name": "calculerSomme",
      "outputs": [
        {
          "internalType": "uint256",
          "name": "",
          "type": "uint256"
        }
      ],
      "stateMutability": "nonpayable",
      "type": "function"
    },
    {
      "inputs": [],
      "name": "calculerSommeView",
      "outputs": [
        {
          "internalType": "uint256",
          "name": "",
          "type": "uint256"
        }
      ],
      "stateMutability": "view",
      "type": "function",
      "constant": true
    },
    {
      "inputs": [],
      "name": "getTailleTableau",
      "outputs": [
        {
          "internalType": "uint256",
          "name": "",
          "type": "uint256"
        }
      ],
      "stateMutability": "view",
      "type": "function",
      "constant": true
    },
    {
      "inputs": [],
      "name": "supprimerDernier",
      "outputs": [],
      "stateMutability": "nonpayable",
      "type": "function"
    }
  ],
  "bytecode": "0x608060405234801561001057600080fd5b506000805460018181018355828052600a7f290decd9548b62a8d60345a988386fc84ba6bc95484008f6362f93160ef3e56392830155825480820184556014908301558254908101909255601e9101556104c88061006f6000396000f3fe608060405234801561001057600080fd5b50600436106100885760003560e01c806382fdde731161005b57806382fdde73146100e9578063bd92c667146100f1578063c94b47fb14610104578063e66df3341461010c57600080fd5b80631a393c081461008d5780631f4440b0146100975780633a7d22bc146100b55780637692fb5f146100d6575b600080fd5b610095610114565b005b61009f610187565b6040516100ac91906103c1565b60405180910390f35b6100c86100c3366004610405565b6101df565b6040519081526020016100ac565b6100c86100e4366004610405565b610261565b6100c8610282565b6100956100ff366004610405565b6102d4565b6000546100c8565b6100c861033c565b60005461015e5760405162461bcd60e51b81526020600482015260136024820152724c65207461626c65617520657374207669646560681b60448201526064015b60405180910390fd5b600080548061016f5761016f61041e565b60019003818190600052602060002001600090559055565b606060008054806020026020016040519081016040528092919081815260200182805480156101d557602002820191906000526020600020905b8154815260200190600101908083116101c1575b5050505050905090565b60008054821061023c5760405162461bcd60e51b815260206004820152602260248201527f496e646578206e27657869737465207061732064616e73206c65207461626c65604482015261617560f01b6064820152608401610155565b6000828154811061024f5761024f610434565b90600052602060002001549050919050565b6000818154811061027157600080fd5b600091825260209091200154905081565b600080805b6000548110156102ce57600081815481106102a4576102a4610434565b9060005260206000200154826102ba9190610460565b9150806102c681610479565b915050610287565b50919050565b600080546001810182559080527f290decd9548b62a8d60345a988386fc84ba6bc95484008f6362f93160ef3e563018190556040518181527fd21d02f382f86bab7fa7e9c1bb0c4c7f2ec5fbbdefacc2d3eface02064fa5ce49060200160405180910390a150565b600080805b600054811015610388576000818154811061035e5761035e610434565b9060005260206000200154826103749190610460565b91508061038081610479565b915050610341565b506040518181527fbfc98fca108b809136b2fae4c7a83888ec31f6b56be4daa15e54b4b9ba79ccef9060200160405180910390a1919050565b6020808252825182820181905260009190848201906040850190845b818110156103f9578351835292840192918401916001016103dd565b50909695505050505050565b60006020828403121561041757600080fd5b5035919050565b634e487b7160e01b600052603160045260246000fd5b634e487b7160e01b600052603260045260246000fd5b634e487b7160e01b600052601160045260246000fd5b808201808211156104735761047361044a565b92915050565b60006001820161048b5761048b61044a565b506001019056fea26469706673582212202bcb0f2e07aa4834b122e044eb2d7d2958648a2a7ac86126f0361b46cf2fba2c64736f6c63430008130033",
  "immutableReferences": {},
  "source": "// SPDX-License-Identifier: MIT\r\npragma solidity ^0.8.19;\r\n\r\ncontract Exercice6 {\r\n    // Tableau dynamique pour stocker les nombres\r\n    uint256[] public nombres;\r\n    \r\n    // vnements\r\n    event NombreAjoute(uint256 nombre);\r\n    event SommeCalculee(uint256 somme);\r\n    \r\n    // Constructeur - initialise le tableau avec quelques valeurs\r\n    constructor() {\r\n        nombres.push(10);\r\n        nombres.push(20);\r\n        nombres.push(30);\r\n    }\r\n    \r\n    // Fonction pour ajouter un nombre au tableau\r\n    function ajouterNombre(uint256 nombre) public {\r\n        nombres.push(nombre);\r\n        emit NombreAjoute(nombre);\r\n    }\r\n    \r\n    // Fonction qui retourne l'lment  l'indice donn\r\n    function getElement(uint256 index) public view returns (uint256) {\r\n        require(index < nombres.length, \"Index n'existe pas dans le tableau\");\r\n        return nombres[index];\r\n    }\r\n    \r\n    // Fonction qui retourne le tableau complet\r\n    function afficheTableau() public view returns (uint256[] memory) {\r\n        return nombres;\r\n    }\r\n    \r\n    // Fonction qui calcule et retourne la somme des nombres\r\n    function calculerSomme() public returns (uint256) {\r\n        uint256 somme = 0;\r\n        for (uint256 i = 0; i < nombres.length; i++) {\r\n            somme += nombres[i];\r\n        }\r\n        emit SommeCalculee(somme);\r\n        return somme;\r\n    }\r\n    \r\n    // Version view de calculer somme (sans vnement)\r\n    function calculerSommeView() public view returns (uint256) {\r\n        uint256 somme = 0;\r\n        for (uint256 i = 0; i < nombres.length; i++) {\r\n            somme += nombres[i];\r\n        }\r\n        return somme;\r\n    }\r\n    \r\n    // Fonction pour obtenir la taille du tableau\r\n    function getTailleTableau() public view returns (uint256) {\r\n        return nombres.length;\r\n    }\r\n    \r\n    // Fonction pour supprimer le dernier lment\r\n    function supprimerDernier() public {\r\n        require(nombres.length > 0, \"Le tableau est vide\");\r\n        nombres.pop();\r\n    }\r\n}",
  "sourcePath": "C:\\Users\\MALAK\\dapp-tp3\\contracts\\Exercice6.sol",
  "compiler": {
    "name": "solc",
    "version": "0.8.19+commit.7dd6d404.Emscripten.clang"
  },
  "schemaVersion": "3.4.16",
  "updatedAt": "2025-07-30T02:19:28.733Z",
  "networkType": "ethereum",
  "devdoc": {
    "kind": "dev",
    "methods": {},
    "version": 1
  },
  "userdoc": {
    "kind": "user",
    "methods": {},
    "version": 1
  }
}