{
  "contractName": "GestionChaines",
  "abi": [
    {
      "inputs": [],
      "stateMutability": "nonpayable",
      "type": "constructor"
    },
    {
      "anonymous": false,
      "inputs": [
        {
          "indexed": false,
          "internalType": "string",
          "name": "nouveauMessage",
          "type": "string"
        }
      ],
      "name": "MessageModifie",
      "type": "event"
    },
    {
      "inputs": [],
      "name": "message",
      "outputs": [
        {
          "internalType": "string",
          "name": "",
          "type": "string"
        }
      ],
      "stateMutability": "view",
      "type": "function",
      "constant": true
    },
    {
      "inputs": [
        {
          "internalType": "string",
          "name": "_message",
          "type": "string"
        }
      ],
      "name": "setMessage",
      "outputs": [],
      "stateMutability": "nonpayable",
      "type": "function"
    },
    {
      "inputs": [],
      "name": "getMessage",
      "outputs": [
        {
          "internalType": "string",
          "name": "",
          "type": "string"
        }
      ],
      "stateMutability": "view",
      "type": "function",
      "constant": true
    },
    {
      "inputs": [
        {
          "internalType": "string",
          "name": "a",
          "type": "string"
        },
        {
          "internalType": "string",
          "name": "b",
          "type": "string"
        }
      ],
      "name": "concatener",
      "outputs": [
        {
          "internalType": "string",
          "name": "",
          "type": "string"
        }
      ],
      "stateMutability": "pure",
      "type": "function",
      "constant": true
    },
    {
      "inputs": [
        {
          "internalType": "string",
          "name": "autreChaine",
          "type": "string"
        }
      ],
      "name": "concatenerAvec",
      "outputs": [
        {
          "internalType": "string",
          "name": "",
          "type": "string"
        }
      ],
      "stateMutability": "view",
      "type": "function",
      "constant": true
    },
    {
      "inputs": [
        {
          "internalType": "string",
          "name": "s",
          "type": "string"
        }
      ],
      "name": "longueur",
      "outputs": [
        {
          "internalType": "uint256",
          "name": "",
          "type": "uint256"
        }
      ],
      "stateMutability": "pure",
      "type": "function",
      "constant": true
    },
    {
      "inputs": [
        {
          "internalType": "string",
          "name": "a",
          "type": "string"
        },
        {
          "internalType": "string",
          "name": "b",
          "type": "string"
        }
      ],
      "name": "comparer",
      "outputs": [
        {
          "internalType": "bool",
          "name": "",
          "type": "bool"
        }
      ],
      "stateMutability": "pure",
      "type": "function",
      "constant": true
    },
    {
      "inputs": [],
      "name": "longueurMessage",
      "outputs": [
        {
          "internalType": "uint256",
          "name": "",
          "type": "uint256"
        }
      ],
      "stateMutability": "view",
      "type": "function",
      "constant": true
    }
  ],
  "bytecode": "0x608060405234801561001057600080fd5b5060408051808201909152600f81526e13595cdcd859d9481a5b9a5d1a585b608a1b602082015260009061004490826100e9565b506101a8565b634e487b7160e01b600052604160045260246000fd5b600181811c9082168061007457607f821691505b60208210810361009457634e487b7160e01b600052602260045260246000fd5b50919050565b601f8211156100e457600081815260208120601f850160051c810160208610156100c15750805b601f850160051c820191505b818110156100e0578281556001016100cd565b5050505b505050565b81516001600160401b038111156101025761010261004a565b610116816101108454610060565b8461009a565b602080601f83116001811461014b57600084156101335750858301515b600019600386901b1c1916600185901b1785556100e0565b600085815260208120601f198616915b8281101561017a5788860151825594840194600190910190840161015b565b50858210156101985787850151600019600388901b60f8161c191681555b5050505050600190811b01905550565b610744806101b76000396000f3fe608060405234801561001057600080fd5b50600436106100885760003560e01c80639103ca331161005b5780639103ca331461010a578063af7c69c01461011d578063ce6d41de14610125578063e21f37ce1461012d57600080fd5b806317646f891461008d578063368b8772146100b5578063413d4384146100ca5780634f759687146100ea575b600080fd5b6100a061009b366004610404565b610135565b60405190151581526020015b60405180910390f35b6100c86100c3366004610468565b61018e565b005b6100dd6100d8366004610468565b6101d5565b6040516100ac91906104c9565b6100fc6100f8366004610468565b5190565b6040519081526020016100ac565b6100dd610118366004610404565b610201565b6100fc61022d565b6100dd610241565b6100dd6102d3565b60008160405160200161014891906104fc565b604051602081830303815290604052805190602001208360405160200161016f91906104fc565b6040516020818303038152906040528051906020012014905092915050565b600061019a82826105a1565b507f70bb3c7ade70fb6bd1c7f44120e10e6c4c7b09ff631a7142c539fcbe06022575816040516101ca91906104c9565b60405180910390a150565b60606000826040516020016101eb929190610661565b6040516020818303038152906040529050919050565b606082826040516020016102169291906106e8565b604051602081830303815290604052905092915050565b600080805461023b90610518565b92915050565b60606000805461025090610518565b80601f016020809104026020016040519081016040528092919081815260200182805461027c90610518565b80156102c95780601f1061029e576101008083540402835291602001916102c9565b820191906000526020600020905b8154815290600101906020018083116102ac57829003601f168201915b5050505050905090565b600080546102e090610518565b80601f016020809104026020016040519081016040528092919081815260200182805461030c90610518565b80156103595780601f1061032e57610100808354040283529160200191610359565b820191906000526020600020905b81548152906001019060200180831161033c57829003601f168201915b505050505081565b634e487b7160e01b600052604160045260246000fd5b600082601f83011261038857600080fd5b813567ffffffffffffffff808211156103a3576103a3610361565b604051601f8301601f19908116603f011681019082821181831017156103cb576103cb610361565b816040528381528660208588010111156103e457600080fd5b836020870160208301376000602085830101528094505050505092915050565b6000806040838503121561041757600080fd5b823567ffffffffffffffff8082111561042f57600080fd5b61043b86838701610377565b9350602085013591508082111561045157600080fd5b5061045e85828601610377565b9150509250929050565b60006020828403121561047a57600080fd5b813567ffffffffffffffff81111561049157600080fd5b61049d84828501610377565b949350505050565b60005b838110156104c05781810151838201526020016104a8565b50506000910152565b60208152600082518060208401526104e88160408501602087016104a5565b601f01601f19169190910160400192915050565b6000825161050e8184602087016104a5565b9190910192915050565b600181811c9082168061052c57607f821691505b60208210810361054c57634e487b7160e01b600052602260045260246000fd5b50919050565b601f82111561059c57600081815260208120601f850160051c810160208610156105795750805b601f850160051c820191505b8181101561059857828155600101610585565b5050505b505050565b815167ffffffffffffffff8111156105bb576105bb610361565b6105cf816105c98454610518565b84610552565b602080601f83116001811461060457600084156105ec5750858301515b600019600386901b1c1916600185901b178555610598565b600085815260208120601f198616915b8281101561063357888601518255948401946001909101908401610614565b50858210156106515787850151600019600388901b60f8161c191681555b5050505050600190811b01905550565b600080845461066f81610518565b60018281168015610687576001811461069c576106cb565b60ff19841687528215158302870194506106cb565b8860005260208060002060005b858110156106c25781548a8201529084019082016106a9565b50505082870194505b5050505083516106df8183602088016104a5565b01949350505050565b600083516106fa8184602088016104a5565b8351908301906106df8183602088016104a556fea26469706673582212205458a13da8b9076205924193a69c1dd43c3dc051bf4757bec3cb20026b0f66dc64736f6c63430008130033",
  "immutableReferences": {},
  "source": "// SPDX-License-Identifier: MIT\r\npragma solidity ^0.8.19;\r\n\r\ncontract GestionChaines {\r\n    // Variable d'tat de type string\r\n    string public message;\r\n    \r\n    // vnement\r\n    event MessageModifie(string nouveauMessage);\r\n    \r\n    // Constructeur\r\n    constructor() {\r\n        message = \"Message initial\";\r\n    }\r\n    \r\n    // Fonction pour modifier la valeur de message\r\n    function setMessage(string memory _message) public {\r\n        message = _message;\r\n        emit MessageModifie(_message);\r\n    }\r\n    \r\n    // Fonction pour retourner la valeur de message\r\n    function getMessage() public view returns (string memory) {\r\n        return message;\r\n    }\r\n    \r\n    // Fonction qui concatne deux chanes passes en paramtres\r\n    function concatener(string memory a, string memory b) public pure returns (string memory) {\r\n        return string.concat(a, b);\r\n    }\r\n    \r\n    // Fonction qui concatne message avec une autre chane\r\n    function concatenerAvec(string memory autreChaine) public view returns (string memory) {\r\n        return string.concat(message, autreChaine);\r\n    }\r\n    \r\n    // Fonction qui retourne la longueur d'une chane\r\n    function longueur(string memory s) public pure returns (uint256) {\r\n        return bytes(s).length;\r\n    }\r\n    \r\n    // Fonction qui compare deux chanes et retourne un boolen\r\n    function comparer(string memory a, string memory b) public pure returns (bool) {\r\n        return keccak256(abi.encodePacked(a)) == keccak256(abi.encodePacked(b));\r\n    }\r\n    \r\n    // Fonction pour obtenir la longueur du message actuel\r\n    function longueurMessage() public view returns (uint256) {\r\n        return bytes(message).length;\r\n    }\r\n}",
  "sourcePath": "C:\\Users\\MALAK\\dapp-tp3\\contracts\\Exercice3.sol",
  "compiler": {
    "name": "solc",
    "version": "0.8.19+commit.7dd6d404.Emscripten.clang"
  },
  "schemaVersion": "3.4.16",
  "updatedAt": "2025-07-30T02:19:28.719Z",
  "networkType": "ethereum",
  "devdoc": {
    "kind": "dev",
    "methods": {},
    "version": 1
  },
  "userdoc": {
    "kind": "user",
    "methods": {},
    "version": 1
  }
}