{
  "contractName": "Payment",
  "abi": [
    {
      "inputs": [
        {
          "internalType": "address",
          "name": "_recipient",
          "type": "address"
        }
      ],
      "stateMutability": "nonpayable",
      "type": "constructor"
    },
    {
      "anonymous": false,
      "inputs": [
        {
          "indexed": false,
          "internalType": "address",
          "name": "from",
          "type": "address"
        },
        {
          "indexed": false,
          "internalType": "uint256",
          "name": "amount",
          "type": "uint256"
        }
      ],
      "name": "PaymentReceived",
      "type": "event"
    },
    {
      "anonymous": false,
      "inputs": [
        {
          "indexed": false,
          "internalType": "address",
          "name": "to",
          "type": "address"
        },
        {
          "indexed": false,
          "internalType": "uint256",
          "name": "amount",
          "type": "uint256"
        }
      ],
      "name": "Withdrawal",
      "type": "event"
    },
    {
      "inputs": [],
      "name": "recipient",
      "outputs": [
        {
          "internalType": "address",
          "name": "",
          "type": "address"
        }
      ],
      "stateMutability": "view",
      "type": "function",
      "constant": true
    },
    {
      "stateMutability": "payable",
      "type": "receive",
      "payable": true
    },
    {
      "inputs": [],
      "name": "receivePayment",
      "outputs": [],
      "stateMutability": "payable",
      "type": "function",
      "payable": true
    },
    {
      "inputs": [],
      "name": "withdraw",
      "outputs": [],
      "stateMutability": "nonpayable",
      "type": "function"
    },
    {
      "inputs": [],
      "name": "getBalance",
      "outputs": [
        {
          "internalType": "uint256",
          "name": "",
          "type": "uint256"
        }
      ],
      "stateMutability": "view",
      "type": "function",
      "constant": true
    },
    {
      "inputs": [
        {
          "internalType": "address",
          "name": "newRecipient",
          "type": "address"
        }
      ],
      "name": "changeRecipient",
      "outputs": [],
      "stateMutability": "nonpayable",
      "type": "function"
    }
  ],
  "bytecode": "0x608060405234801561001057600080fd5b5060405161056938038061056983398101604081905261002f916100ae565b6001600160a01b0381166100895760405162461bcd60e51b815260206004820181905260248201527f416472657373652064752064657374696e61746169726520696e76616c696465604482015260640160405180910390fd5b600080546001600160a01b0319166001600160a01b03929092169190911790556100de565b6000602082840312156100c057600080fd5b81516001600160a01b03811681146100d757600080fd5b9392505050565b61047c806100ed6000396000f3fe60806040526004361061004e5760003560e01c806312065fe0146100bb5780633ccfd60b146100db57806366d003ac146100f2578063835c19f31461012a57806392c2bcb41461013257600080fd5b366100b6576000341161007c5760405162461bcd60e51b8152600401610073906103d4565b60405180910390fd5b604080513381523460208201527f6ef95f06320e7a25a04a175ca677b7052bdd97131872c2192525a629f51be770910160405180910390a1005b600080fd5b3480156100c757600080fd5b506040514781526020015b60405180910390f35b3480156100e757600080fd5b506100f0610152565b005b3480156100fe57600080fd5b50600054610112906001600160a01b031681565b6040516001600160a01b0390911681526020016100d2565b6100f061028d565b34801561013e57600080fd5b506100f061014d366004610416565b6102e7565b6000546001600160a01b031633146101c05760405162461bcd60e51b815260206004820152602b60248201527f5365756c206c652064657374696e61746169726520706575742072657469726560448201526a72206c657320666f6e647360a81b6064820152608401610073565b600047116102085760405162461bcd60e51b815260206004820152601560248201527420bab1bab7103337b732399030903932ba34b932b960591b6044820152606401610073565b6000805460405147926001600160a01b039092169183156108fc02918491818181858888f19350505050158015610243573d6000803e3d6000fd5b50600054604080516001600160a01b039092168252602082018390527f7fcf532c15f0a6db0bd6d0e038bea71d30d808c7d98cb3bf7268a95bf5081b65910160405180910390a150565b600034116102ad5760405162461bcd60e51b8152600401610073906103d4565b604080513381523460208201527f6ef95f06320e7a25a04a175ca677b7052bdd97131872c2192525a629f51be770910160405180910390a1565b6000546001600160a01b0316331461035c5760405162461bcd60e51b815260206004820152603260248201527f5365756c206c652064657374696e6174616972652061637475656c2070657574604482015271206368616e676572206c276164726573736560701b6064820152608401610073565b6001600160a01b0381166103b25760405162461bcd60e51b815260206004820152601960248201527f4e6f7576656c6c65206164726573736520696e76616c696465000000000000006044820152606401610073565b600080546001600160a01b0319166001600160a01b0392909216919091179055565b60208082526022908201527f4c65206d6f6e74616e7420646f69742065747265207375706572696575722061604082015261020360f41b606082015260800190565b60006020828403121561042857600080fd5b81356001600160a01b038116811461043f57600080fd5b939250505056fea2646970667358221220e1de0d6268fdc19cda3c8fd9b45ae198fb60d55188007b7e3d8f3ef11253ea1164736f6c63430008130033",
  "immutableReferences": {},
  "source": "// SPDX-License-Identifier: MIT\r\npragma solidity ^0.8.19;\r\n\r\ncontract Payment {\r\n    // Variable d'tat pour stocker l'adresse du destinataire\r\n    address public recipient;\r\n    \r\n    // vnements\r\n    event PaymentReceived(address from, uint256 amount);\r\n    event Withdrawal(address to, uint256 amount);\r\n    \r\n    // Constructeur pour initialiser le destinataire\r\n    constructor(address _recipient) {\r\n        require(_recipient != address(0), \"Adresse du destinataire invalide\");\r\n        recipient = _recipient;\r\n    }\r\n    \r\n    // Fonction pour recevoir des paiements\r\n    function receivePayment() public payable {\r\n        require(msg.value > 0, \"Le montant doit etre superieur a 0\");\r\n        emit PaymentReceived(msg.sender, msg.value);\r\n    }\r\n    \r\n    // Fonction pour retirer les fonds\r\n    function withdraw() public {\r\n        require(msg.sender == recipient, \"Seul le destinataire peut retirer les fonds\");\r\n        require(address(this).balance > 0, \"Aucun fonds a retirer\");\r\n        \r\n        uint256 amount = address(this).balance;\r\n        payable(recipient).transfer(amount);\r\n        emit Withdrawal(recipient, amount);\r\n    }\r\n    \r\n    // Fonction pour obtenir le solde du contrat\r\n    function getBalance() public view returns (uint256) {\r\n        return address(this).balance;\r\n    }\r\n    \r\n    // Fonction pour changer le destinataire (seulement par le destinataire actuel)\r\n    function changeRecipient(address newRecipient) public {\r\n        require(msg.sender == recipient, \"Seul le destinataire actuel peut changer l'adresse\");\r\n        require(newRecipient != address(0), \"Nouvelle adresse invalide\");\r\n        recipient = newRecipient;\r\n    }\r\n    \r\n    // Fonction pour recevoir des Ethers directement (fallback)\r\n    receive() external payable {\r\n        require(msg.value > 0, \"Le montant doit etre superieur a 0\");\r\n        emit PaymentReceived(msg.sender, msg.value);\r\n    }\r\n}",
  "sourcePath": "C:\\Users\\MALAK\\dapp-tp3\\contracts\\Exercice8.sol",
  "compiler": {
    "name": "solc",
    "version": "0.8.19+commit.7dd6d404.Emscripten.clang"
  },
  "schemaVersion": "3.4.16",
  "updatedAt": "2025-07-30T02:19:28.743Z",
  "networkType": "ethereum",
  "devdoc": {
    "kind": "dev",
    "methods": {},
    "version": 1
  },
  "userdoc": {
    "kind": "user",
    "methods": {},
    "version": 1
  }
}