{
  "contractName": "Rectangle",
  "abi": [
    {
      "inputs": [
        {
          "internalType": "uint256",
          "name": "_x",
          "type": "uint256"
        },
        {
          "internalType": "uint256",
          "name": "_y",
          "type": "uint256"
        },
        {
          "internalType": "uint256",
          "name": "_longueur",
          "type": "uint256"
        },
        {
          "internalType": "uint256",
          "name": "_largeur",
          "type": "uint256"
        }
      ],
      "stateMutability": "nonpayable",
      "type": "constructor"
    },
    {
      "anonymous": false,
      "inputs": [
        {
          "indexed": false,
          "internalType": "uint256",
          "name": "longueur",
          "type": "uint256"
        },
        {
          "indexed": false,
          "internalType": "uint256",
          "name": "largeur",
          "type": "uint256"
        }
      ],
      "name": "DimensionsModifiees",
      "type": "event"
    },
    {
      "anonymous": false,
      "inputs": [
        {
          "indexed": false,
          "internalType": "uint256",
          "name": "nouvelleX",
          "type": "uint256"
        },
        {
          "indexed": false,
          "internalType": "uint256",
          "name": "nouvelleY",
          "type": "uint256"
        }
      ],
      "name": "FormeDeplacement",
      "type": "event"
    },
    {
      "inputs": [],
      "name": "afficheXY",
      "outputs": [
        {
          "internalType": "uint256",
          "name": "",
          "type": "uint256"
        },
        {
          "internalType": "uint256",
          "name": "",
          "type": "uint256"
        }
      ],
      "stateMutability": "view",
      "type": "function",
      "constant": true
    },
    {
      "inputs": [
        {
          "internalType": "uint256",
          "name": "dx",
          "type": "uint256"
        },
        {
          "internalType": "uint256",
          "name": "dy",
          "type": "uint256"
        }
      ],
      "name": "deplacerForme",
      "outputs": [],
      "stateMutability": "nonpayable",
      "type": "function"
    },
    {
      "inputs": [],
      "name": "la",
      "outputs": [
        {
          "internalType": "uint256",
          "name": "",
          "type": "uint256"
        }
      ],
      "stateMutability": "view",
      "type": "function",
      "constant": true
    },
    {
      "inputs": [],
      "name": "lo",
      "outputs": [
        {
          "internalType": "uint256",
          "name": "",
          "type": "uint256"
        }
      ],
      "stateMutability": "view",
      "type": "function",
      "constant": true
    },
    {
      "inputs": [],
      "name": "x",
      "outputs": [
        {
          "internalType": "uint256",
          "name": "",
          "type": "uint256"
        }
      ],
      "stateMutability": "view",
      "type": "function",
      "constant": true
    },
    {
      "inputs": [],
      "name": "y",
      "outputs": [
        {
          "internalType": "uint256",
          "name": "",
          "type": "uint256"
        }
      ],
      "stateMutability": "view",
      "type": "function",
      "constant": true
    },
    {
      "inputs": [
        {
          "internalType": "uint256",
          "name": "_x",
          "type": "uint256"
        },
        {
          "internalType": "uint256",
          "name": "_y",
          "type": "uint256"
        },
        {
          "internalType": "uint256",
          "name": "_longueur",
          "type": "uint256"
        },
        {
          "internalType": "uint256",
          "name": "_largeur",
          "type": "uint256"
        }
      ],
      "name": "initialiser",
      "outputs": [],
      "stateMutability": "nonpayable",
      "type": "function"
    },
    {
      "inputs": [],
      "name": "surface",
      "outputs": [
        {
          "internalType": "uint256",
          "name": "",
          "type": "uint256"
        }
      ],
      "stateMutability": "view",
      "type": "function",
      "constant": true
    },
    {
      "inputs": [],
      "name": "afficheInfos",
      "outputs": [
        {
          "internalType": "string",
          "name": "",
          "type": "string"
        }
      ],
      "stateMutability": "pure",
      "type": "function",
      "constant": true
    },
    {
      "inputs": [],
      "name": "afficheLoLa",
      "outputs": [
        {
          "internalType": "uint256",
          "name": "",
          "type": "uint256"
        },
        {
          "internalType": "uint256",
          "name": "",
          "type": "uint256"
        }
      ],
      "stateMutability": "view",
      "type": "function",
      "constant": true
    },
    {
      "inputs": [
        {
          "internalType": "uint256",
          "name": "_longueur",
          "type": "uint256"
        },
        {
          "internalType": "uint256",
          "name": "_largeur",
          "type": "uint256"
        }
      ],
      "name": "setDimensions",
      "outputs": [],
      "stateMutability": "nonpayable",
      "type": "function"
    },
    {
      "inputs": [],
      "name": "perimetre",
      "outputs": [
        {
          "internalType": "uint256",
          "name": "",
          "type": "uint256"
        }
      ],
      "stateMutability": "view",
      "type": "function",
      "constant": true
    }
  ],
  "bytecode": "0x608060405234801561001057600080fd5b5060405161048638038061048683398101604081905261002f91610046565b60009390935560019190915560025560035561007c565b6000806000806080858703121561005c57600080fd5b505082516020840151604085015160609095015191969095509092509050565b6103fb8061008b6000396000f3fe608060405234801561001057600080fd5b50600436106100b45760003560e01c806383a443a61161007157806383a443a61461011657806390c33c3f146101325780639361c2321461013b578063a56dfe4a1461014e578063cd514e4014610157578063cfa8d7a41461016257600080fd5b80630c55699c146100b95780630e94ba83146100d55780636f9eeeea146100dd578063741df1d0146100f25780637780c14f146100fa5780637d975c4a14610103575b600080fd5b6100c260005481565b6040519081526020015b60405180910390f35b6100c2610195565b6100f06100eb3660046102dd565b6101ac565b005b6100c2610238565b6100c260025481565b6100f061011136600461030f565b610255565b6002546003545b604080519283526020830191909152016100cc565b6100c260035481565b6100f061014936600461030f565b61029d565b6100c260015481565b60005460015461011d565b60408051808201825260118152704a6520737569732052656374616e676c6560781b602082015290516100cc9190610331565b60006003546002546101a79190610395565b905090565b600084905560018390556002829055600381905560408051858152602081018590527f79404db5635948014e1a8c7cf4b6608994c3d5125252200db31d0b370ea96220910160405180910390a160408051838152602081018390527f2dc087f147930e65151094f0857856a9bcaa2dfccab551e9f45a1f619c2018a4910160405180910390a150505050565b600060035460025461024a91906103b2565b6101a7906002610395565b6002829055600381905560408051838152602081018390527f2dc087f147930e65151094f0857856a9bcaa2dfccab551e9f45a1f619c2018a491015b60405180910390a15050565b6000829055600181905560408051838152602081018390527f79404db5635948014e1a8c7cf4b6608994c3d5125252200db31d0b370ea962209101610291565b600080600080608085870312156102f357600080fd5b5050823594602084013594506040840135936060013592509050565b6000806040838503121561032257600080fd5b50508035926020909101359150565b600060208083528351808285015260005b8181101561035e57858101830151858201604001528201610342565b506000604082860101526040601f19601f8301168501019250505092915050565b634e487b7160e01b600052601160045260246000fd5b80820281158282048414176103ac576103ac61037f565b92915050565b808201808211156103ac576103ac61037f56fea264697066735822122043bf73e66dd37aa273c17c69b44566748d53efe6cdaab4eff166db09b49a6ad464736f6c63430008130033",
  "immutableReferences": {},
  "source": "// SPDX-License-Identifier: MIT \r\npragma solidity ^0.8.19;\r\n\r\n// Contrat abstrait Forme\r\nabstract contract Forme {\r\n    uint256 public x;\r\n    uint256 public y;\r\n\r\n    event FormeDeplacement(uint256 nouvelleX, uint256 nouvelleY);\r\n\r\n    constructor(uint256 _x, uint256 _y) {\r\n        x = _x;\r\n        y = _y;\r\n    }\r\n\r\n    function deplacerForme(uint256 dx, uint256 dy) public {\r\n        x = dx;\r\n        y = dy;\r\n        emit FormeDeplacement(dx, dy);\r\n    }\r\n\r\n    function afficheXY() public view returns (uint256, uint256) {\r\n        return (x, y);\r\n    }\r\n\r\n    function afficheInfos() public pure virtual returns (string memory) {\r\n        return \"Je suis une forme\";\r\n    }\r\n\r\n    function surface() public view virtual returns (uint256);\r\n}\r\n\r\n// Contrat Rectangle\r\ncontract Rectangle is Forme {\r\n    uint256 public lo;\r\n    uint256 public la;\r\n\r\n    event DimensionsModifiees(uint256 longueur, uint256 largeur);\r\n\r\n    constructor(uint256 _x, uint256 _y, uint256 _longueur, uint256 _largeur)\r\n        Forme(_x, _y)\r\n    {\r\n        lo = _longueur;\r\n        la = _largeur;\r\n    }\r\n\r\n    //  Fonction initialiser place ici, dans Rectangle\r\n    function initialiser(uint256 _x, uint256 _y, uint256 _longueur, uint256 _largeur) public {\r\n        x = _x;\r\n        y = _y;\r\n        lo = _longueur;\r\n        la = _largeur;\r\n        emit FormeDeplacement(_x, _y);\r\n        emit DimensionsModifiees(_longueur, _largeur);\r\n    }\r\n\r\n    function surface() public view override returns (uint256) {\r\n        return lo * la;\r\n    }\r\n\r\n    function afficheInfos() public pure override returns (string memory) {\r\n        return \"Je suis Rectangle\";\r\n    }\r\n\r\n    function afficheLoLa() public view returns (uint256, uint256) {\r\n        return (lo, la);\r\n    }\r\n\r\n    function setDimensions(uint256 _longueur, uint256 _largeur) public {\r\n        lo = _longueur;\r\n        la = _largeur;\r\n        emit DimensionsModifiees(_longueur, _largeur);\r\n    }\r\n\r\n    function perimetre() public view returns (uint256) {\r\n        return 2 * (lo + la);\r\n    }\r\n}\r\n",
  "sourcePath": "C:\\Users\\MALAK\\dapp-tp3\\contracts\\Exercice7.sol",
  "compiler": {
    "name": "solc",
    "version": "0.8.19+commit.7dd6d404.Emscripten.clang"
  },
  "schemaVersion": "3.4.16",
  "updatedAt": "2025-07-30T02:19:28.739Z",
  "networkType": "ethereum",
  "devdoc": {
    "kind": "dev",
    "methods": {},
    "version": 1
  },
  "userdoc": {
    "kind": "user",
    "methods": {},
    "version": 1
  }
}